{
  "address": "0x88CcC1fA00e23Eda6A2c921fec2155eb31FA6bF3",
  "abi": [
    {
      "anonymous": false,
      "inputs": [
        {
          "indexed": true,
          "internalType": "address",
          "name": "user",
          "type": "address"
        }
      ],
      "name": "userInfoAdded",
      "type": "event"
    },
    {
      "inputs": [
        {
          "internalType": "address",
          "name": "userAddress",
          "type": "address"
        }
      ],
      "name": "getUserInfo",
      "outputs": [
        {
          "internalType": "string",
          "name": "",
          "type": "string"
        },
        {
          "internalType": "uint256",
          "name": "",
          "type": "uint256"
        },
        {
          "internalType": "string",
          "name": "",
          "type": "string"
        },
        {
          "internalType": "string",
          "name": "",
          "type": "string"
        }
      ],
      "stateMutability": "view",
      "type": "function"
    },
    {
      "inputs": [
        {
          "internalType": "string",
          "name": "_name",
          "type": "string"
        },
        {
          "internalType": "uint256",
          "name": "_age",
          "type": "uint256"
        },
        {
          "internalType": "string",
          "name": "_profession",
          "type": "string"
        },
        {
          "internalType": "string",
          "name": "_bio",
          "type": "string"
        }
      ],
      "name": "setUserInfo",
      "outputs": [],
      "stateMutability": "nonpayable",
      "type": "function"
    }
  ],
  "transactionHash": "0x1fd03d6f1ed3d8221cc379a0187758a6816c9e0b6279d961ea40015747c662f7",
  "args": [],
  "numDeployments": 1,
  "solcInputHash": "78751bdf01c730959c1852c315a2fb45",
  "bytecode": "0x608060405234801561001057600080fd5b506106b2806100206000396000f3fe608060405234801561001057600080fd5b50600436106100365760003560e01c8063100b7de41461003b5780636386c1c714610050575b600080fd5b61004e6100493660046103e1565b61007c565b005b61006361005e366004610473565b610122565b60405161007394939291906104e9565b60405180910390f35b604080516080810182528581526020808201869052818301859052606082018490523360009081529081905291909120815181906100ba90826105bc565b5060208201516001820155604082015160028201906100d990826105bc565b50606082015160038201906100ee90826105bc565b50506040513391507f8ff0e3b262d34e0bace7b34042f460acb1af6b45b33358fe9035424106acdcf490600090a250505050565b606060006060806000806000876001600160a01b03166001600160a01b0316815260200190815260200160002060405180608001604052908160008201805461016a90610533565b80601f016020809104026020016040519081016040528092919081815260200182805461019690610533565b80156101e35780601f106101b8576101008083540402835291602001916101e3565b820191906000526020600020905b8154815290600101906020018083116101c657829003601f168201915b505050505081526020016001820154815260200160028201805461020690610533565b80601f016020809104026020016040519081016040528092919081815260200182805461023290610533565b801561027f5780601f106102545761010080835404028352916020019161027f565b820191906000526020600020905b81548152906001019060200180831161026257829003601f168201915b5050505050815260200160038201805461029890610533565b80601f01602080910402602001604051908101604052809291908181526020018280546102c490610533565b80156103115780601f106102e657610100808354040283529160200191610311565b820191906000526020600020905b8154815290600101906020018083116102f457829003601f168201915b505050919092525050815160208301516040840151606090940151919a9099509297509550909350505050565b634e487b7160e01b600052604160045260246000fd5b600082601f83011261036557600080fd5b813567ffffffffffffffff808211156103805761038061033e565b604051601f8301601f19908116603f011681019082821181831017156103a8576103a861033e565b816040528381528660208588010111156103c157600080fd5b836020870160208301376000602085830101528094505050505092915050565b600080600080608085870312156103f757600080fd5b843567ffffffffffffffff8082111561040f57600080fd5b61041b88838901610354565b955060208701359450604087013591508082111561043857600080fd5b61044488838901610354565b9350606087013591508082111561045a57600080fd5b5061046787828801610354565b91505092959194509250565b60006020828403121561048557600080fd5b81356001600160a01b038116811461049c57600080fd5b9392505050565b6000815180845260005b818110156104c9576020818501810151868301820152016104ad565b506000602082860101526020601f19601f83011685010191505092915050565b6080815260006104fc60808301876104a3565b856020840152828103604084015261051481866104a3565b9050828103606084015261052881856104a3565b979650505050505050565b600181811c9082168061054757607f821691505b60208210810361056757634e487b7160e01b600052602260045260246000fd5b50919050565b601f8211156105b757600081815260208120601f850160051c810160208610156105945750805b601f850160051c820191505b818110156105b3578281556001016105a0565b5050505b505050565b815167ffffffffffffffff8111156105d6576105d661033e565b6105ea816105e48454610533565b8461056d565b602080601f83116001811461061f57600084156106075750858301515b600019600386901b1c1916600185901b1785556105b3565b600085815260208120601f198616915b8281101561064e5788860151825594840194600190910190840161062f565b508582101561066c5787850151600019600388901b60f8161c191681555b5050505050600190811b0190555056fea2646970667358221220aa9fc2c3aa6d2f4fe4afd44b5dc43f6ed25aa2687edd1664ad8e66ab6621fcc564736f6c63430008140033",
  "devdoc": {
    "author": "BuidlGuidl",
    "kind": "dev",
    "methods": {},
    "version": 1
  },
  "userdoc": {
    "kind": "user",
    "methods": {},
    "notice": "A smart contract that allows changing a state variable of the contract and tracking the changes It also allows the owner to withdraw the Ether in the contract",
    "version": 1
  },
  "storageLayout": {
    "storage": [
      {
        "astId": 16,
        "contract": "contracts/YourContract.sol:YourContract",
        "label": "users",
        "offset": 0,
        "slot": "0",
        "type": "t_mapping(t_address,t_struct(User)11_storage)"
      }
    ],
    "types": {
      "t_address": {
        "encoding": "inplace",
        "label": "address",
        "numberOfBytes": "20"
      },
      "t_mapping(t_address,t_struct(User)11_storage)": {
        "encoding": "mapping",
        "key": "t_address",
        "label": "mapping(address => struct YourContract.User)",
        "numberOfBytes": "32",
        "value": "t_struct(User)11_storage"
      },
      "t_string_storage": {
        "encoding": "bytes",
        "label": "string",
        "numberOfBytes": "32"
      },
      "t_struct(User)11_storage": {
        "encoding": "inplace",
        "label": "struct YourContract.User",
        "members": [
          {
            "astId": 4,
            "contract": "contracts/YourContract.sol:YourContract",
            "label": "name",
            "offset": 0,
            "slot": "0",
            "type": "t_string_storage"
          },
          {
            "astId": 6,
            "contract": "contracts/YourContract.sol:YourContract",
            "label": "age",
            "offset": 0,
            "slot": "1",
            "type": "t_uint256"
          },
          {
            "astId": 8,
            "contract": "contracts/YourContract.sol:YourContract",
            "label": "profession",
            "offset": 0,
            "slot": "2",
            "type": "t_string_storage"
          },
          {
            "astId": 10,
            "contract": "contracts/YourContract.sol:YourContract",
            "label": "bio",
            "offset": 0,
            "slot": "3",
            "type": "t_string_storage"
          }
        ],
        "numberOfBytes": "128"
      },
      "t_uint256": {
        "encoding": "inplace",
        "label": "uint256",
        "numberOfBytes": "32"
      }
    }
  }
}